:100000000C94C7010C94E4010C94E4010C94E401F9
:100010000C94E4010C94E4010C94E4010C94E401CC
:100020000C94E4010C94E4010C94E4010C94E401BC
:100030000C94E4010C94E4010C94E4010C94E401AC
:100040000C94E4010C94E4010C94E4010C94E4019C
:100050000C94E4010C94E4010C94E4010C9421024E
:100060000C94E4010C94E4010C94E4010C94E4017C
:100070000C94E4010C94E4010C94E4010C94E4016C
:100080000C94E4010C94E4010C94E4010C94E4015C
:100090000C94E4010C94E4010C94E4010C94E4014C
:1000A0000C94E4010C94E4010C94E4016E616E0084
:1000B000696E6600000000000000005F000000079D
:1000C000000700147F147F14242A7F2A12231308A8
:1000D000646236495522500005030000001C22418D
:1000E000000041221C0014083E081408083E0808BD
:1000F0000050300000080808080800606000002078
:10010000100804023E5149453E00427F40004261D2
:100110005149462141454B311814127F102745455E
:1001200045393C4A49493001710905033649494975
:1001300036064949291E00363600000056360000B2
:10014000081422410014141414140041221408024B
:1001500001510906324979413E7E1111117E7F49D4
:100160004949363E414141227F4141221C7F494954
:1001700049417F090909013E4149497A7F08080838
:100180007F00417F41002040413F017F0814224110
:100190007F404040407F020C027F7F0408107F3E7A
:1001A0004141413E7F090909063E4151215E7F09D7
:1001B000192946464949493101017F01013F404023
:1001C000403F1F2040201F3F4038403F6314081429
:1001D0006307087008076151494543007F414100AA
:1001E00002040810200041417F0004020102044083
:1001F00040404040000102040020545454787F489D
:100200004444383844444420384444487F385454A3
:100210005418087E0901020C5252523E7F08040411
:100220007800447D40002040443D007F1028440079
:1002300000417F40007C041804787C08040478386E
:10024000444444387C14141408081414187C7C08A2
:100250000404084854545420043F4440203C404087
:10026000207C1C2040201C3C4030403C442810286E
:10027000440C5050503C4464544C440008364100F7
:1002800000007F00000041360800100808100878C0
:100290004641467800407A10F35A00A0724E180981
:1002A0000010A5D4E80000E87648170000E40B54DD
:1002B000020000CA9A3B000000E1F50500008096AC
:1002C0009800000040420F000000A08601000000DE
:1002D000102700000000E803000000006400000098
:1002E00000000A00000000000100000000002C7661
:1002F000D888DC674F0823DFC1DFAE59E1B1B7967C
:10030000E5E3E453C63AE651997696E8E6C28426D8
:10031000EB898C9B62ED407C6FFCEFBC9C9F40F2B4
:10032000BAA56FA5F490055A2AF75C936B6CF96730
:100330006DC11BFCE0E40D47FEF520E6B500D0EDF5
:10034000902E0300943577050080841E080000205D
:100350004E0A000000C80C333333330F986E1283FB
:100360001141EF8D2114893BE65516CFFEE6DB18CF
:10037000D1844B381BF77C1D901DA4BBE424203294
:1003800084725E228100C9F124ECA1E53D2711248D
:100390001FBECFEFDAE0DEBFCDBF11E0A0E0B1E0DD
:1003A000E6EDFEE202C005900D92A835B107D9F73F
:1003B00013E0A8E5B1E001C01D92A037B107E1F755
:1003C0000E9492020C9469170C9400001AB810BA9B
:1003D00014B83F9A80E480937C0087EE80937A0083
:1003E000089510925E0108953F9880ED97E028EC03
:1003F00030E0F9013197F1F70197D9F73F9A80ED95
:1004000097E028EC30E0F9013197F1F70197D9F73F
:100410003F9880ED97E028EC30E0F9013197F1F753
:100420000197D9F73F9A0895F89485B5846085BD02
:1004300081E085BBEEE6F0E0808181608083789486
:1004400008951F920F920FB60F9211242F934F937E
:100450005F936F937F938F939F93EF93FF9390910D
:10046000580189B186958170990F982B9093580106
:100470009091590183B1990F881F8827881F982B65
:100480009093590190915A0183B186958170990F8B
:10049000982B90935A0190915B0189B1990F8170CB
:1004A000982B90935B0190915C018FB1829586951A
:1004B00086958170990F982B90935C0190915D01C6
:1004C0008FB1829586958170990F982B90935D01DD
:1004D00040E050E061E070E0FA01E85AFE4F8081B0
:1004E0008F738F3361F420915E01CB01042E02C023
:1004F000880F991F0A94E2F7282B20935E014F5F23
:100500005F4F4630510541F7FF91EF919F918F91D9
:100510007F916F915F914F912F910F900FBE0F9030
:100520001F901895AF92BF92CF92DF92EF92FF92F9
:100530000F931F93CF93DF9380E88093610081E056
:10054000809361000E94E6010E941402479A8FE3A3
:100550000E9452130E94241189E160E040E051E0C2
:100560000E94F91283E269E048E051E00E94F9122A
:1005700087E162E14CE051E00E94F9120E941E13F3
:1005800080E29EE428EC30E0F9013197F1F7019721
:10059000D9F781E00E946905C8ECD0E080915E0146
:1005A0000E9484070E9470060E9424110E94D808AD
:1005B0000E941E136091780070917900769567957E
:1005C0006C597F4F80E090E00E940B105B016C0142
:1005D00020E030E04AEF54E40E94C1107B018C011E
:1005E00020E030E040E85FE30E946E0F88231CF4B7
:1005F00061E070E022C0C801B70120E03FEF4FE7A3
:1006000057E40E94BD101816A4F4C601B50120E0FD
:1006100030E040E251E40E94C1100E94DF0F05C0AB
:10062000CE010197F1F76150704061157105C1F776
:10063000B5CFC801B7010E94DF0FCB010197F1F7D9
:10064000ADCFAF92BF92CF92DF92EF92FF920F9316
:100650001F93DF93CF93CDB7DEB760970FB6F894B3
:10066000DEBF0FBECDBF29833A834B835C836D838E
:100670007E838F839887A986BA86CB86DC86ED86B3
:10068000FE860F87188BAD81BE810B811C81EF80A8
:10069000F88449855A856F857889EB85FC852981A1
:1006A0003A818D859E85821793077CF0A417B50744
:1006B00064F0601771074CF090E0EE16FF060CF442
:1006C00091E081E09827892F02C080E090E0609659
:1006D0000FB6F894DEBF0FBECDBFCF91DF911F9153
:1006E0000F91FF90EF90DF90CF90BF90AF90089563
:1006F0001F93DF93CF93CDB7DEB728970FB6F8944B
:10070000DEBF0FBECDBFFC01DB019A8389837C83F2
:100710006B83BC016E5F7F4F7E836D83CD0102963C
:1007200098878F833A815C811E812E2F4A2F712FEB
:10073000988528960FB6F894DEBF0FBECDBFCF9137
:10074000DF911F9108953F924F925F926F927F9237
:100750008F929F92AF92BF92CF92DF92EF92FF92D1
:100760000F931F93DF93CF93CDB7DEB768970FB684
:10077000F894DEBF0FBECDBF29873A874B875C87D1
:100780006D877E878F87988B8B849C84AF84B88895
:10079000C984DA84ED84FE84002319F40BE611E0A9
:1007A00039C000916F011091700134C0F80162816D
:1007B0007381808191810E947803298B3A8B4B8BC6
:1007C0005C8B6D8B7E8B8F8B988FD201F30188E0D1
:1007D00001900D928150E1F72D813E814B815C812A
:1007E0006F81788589819A81E816F9067CF02C154D
:1007F0003D0564F0A416B5064CF080E06815790557
:100800000CF481E0831511F081E014C0F80104813B
:1008100015810BC02E010894411C511C81E1682EEA
:10082000712C6C0E7D1E332433940115110509F0D3
:10083000BDCF80E068960FB6F894DEBF0FBECDBF87
:10084000CF91DF911F910F91FF90EF90DF90CF90AC
:10085000BF90AF909F908F907F906F905F904F90E0
:100860003F9008955F926F927F928F929F92AF9286
:10087000BF92CF92DF92EF92FF920F931F93DF937D
:10088000CF93CDB7DEB760970FB6F894DEBF0FBE3B
:10089000CDBF3E010894611C711C99E0892E912CFA
:1008A0008C0E9D1E552453940E945415AA2797FD23
:1008B000A095BA2FBC01CD010E940D1020E03EEFA3
:1008C0004FEF56E40E94720F20E030E048EA52E415
:1008D0000E94C1100E94DA0F7B018C015B010E9413
:1008E0005415AA2797FDA095BA2FBC01CD010E94EF
:1008F0000D1020E03EEF4FEF56E40E94720F20E013
:1009000030E040E452E40E94C1100E94DA0F9B01E3
:10091000AC016B01C701B9010E94780329873A87AE
:100920004B875C876D877E878F87988BD301F40117
:1009300088E001900D928150E1F729813A814B8145
:100940005C816D817E818F81988500E00E94A30388
:10095000882309F0A9CFE981FA81AD81BE810B819D
:100960001C81EF80F884209125013091260140916F
:100970002B0150912C0160912701709128018091E9
:10098000290190912A018E179F0754F0A217B307EF
:100990003CF04017510724F0E616F7060CF084CF20
:1009A00020912D0130912E0140913301509134015D
:1009B00060912F017091300180913101909132014D
:1009C0008E179F0754F0A217B3073CF0401751074A
:1009D00024F0E616F7060CF067CF20913501309130
:1009E000360140913B0150913C016091370170917B
:1009F00038018091390190913A018E179F0754F088
:100A0000A217B3073CF04017510724F0E616F7068B
:100A10000CF04ACF20913D0130913E0140914301BD
:100A20005091440160913F017091400180914101DA
:100A3000909142018E179F0774F0A217B3075CF0E4
:100A40004017510744F080E0E616F7060CF481E009
:100A5000851509F029CFB0926801A0926701D09264
:100A60006A01C092690160960FB6F894DEBF0FBEAE
:100A7000CDBFCF91DF911F910F91FF90EF90DF904D
:100A8000CF90BF90AF909F908F907F906F905F902E
:100A90000895CF92DF92EF92FF920F931F937C0104
:100AA0006B018A0186E090E00E94FE13FC01D801F0
:100AB00015969C938E931497F182E082D382C28222
:100AC000158214821F910F91FF90EF90DF90CF90CD
:100AD00008950F931F93882389F4E0916F01F0919B
:100AE000700109C014810581CF010E94AB14212F30
:100AF000302FC901FC013097A9F70AC085E090E0CA
:100B000090937201809371011092660110926501B9
:100B100084E090E0909364018093630110927301EC
:100B200082E190E090936C0180936B0190936E0151
:100B300080936D011092700110926F0185E190E039
:100B400062E170E04BE651E00E9449050E943204E8
:100B50000E94F1011F910F9108950E94F40180916C
:100B600071019091720101979093720180937101CC
:100B700097FF04C081E080936101089580E00E94A6
:100B800069050895CF92DF92EF92FF920F93DF9362
:100B9000CF93CDB7DEB760970FB6F894DEBF0FBE28
:100BA000CDBF80916301909164018430910509F477
:100BB00089C08230910519F44DEF5FEF16C0833084
:100BC000910519F443E050E010C0009729F440E08B
:100BD00050E02DEF3FEF0BC0019729F440E050E0CB
:100BE00023E030E004C040E050E020E030E08091BD
:100BF0006B0190916C01840F951FE0916D01F09154
:100C00006E01E20FF31F97FF06C034E5C32ED12C0F
:100C1000C80ED91E05C064E570E00E94A0136C01E7
:100C2000F7FF06C020E3E22EF12CEE0EFF1E06C0F9
:100C3000CF0160E370E00E94A0137C01C601B70100
:100C40000E94780329873A874B875C876D877E8768
:100C50008F87988BDE011196FE01399688E001900E
:100C60000D928150E1F729813A814B815C816D8140
:100C70007E818F81988501E00E94A303882319F06B
:100C80000E94AD051FC0EBE6F1E0A081B181628159
:100C90007381D182C082F382E282448155819B01BB
:100CA00079019D0169014115510511F0FA01EDCF5E
:100CB00080917301882331F0CD01AF010E94490575
:100CC0001092730160960FB6F894DEBF0FBECDBFD1
:100CD000CF91DF910F91FF90EF90DF90CF9008952B
:100CE000EF92FF920F931F93DF93CF93CDB7DEB7B1
:100CF000A0970FB6F894DEBF0FBECDBF8091610103
:100D0000882309F0F4C060916D0170916E018091AB
:100D10006B0190916C010E947803298F3A8F4B8F61
:100D20005C8F6D8F7E8F8F8F98A3DE011996FE01E9
:100D3000799688E001900D928150E1F76091690108
:100D400070916A0180916701909168010E94780317
:100D5000298F3A8F4B8F5C8F6D8F7E8F8F8F98A3EB
:100D6000DE015196FE01799688E001900D92815046
:100D7000E1F7AD85BE850B851C85EF84F888498930
:100D80005A896F89788DEB89FC8929853A858D8907
:100D90009E898217930734F1A417B5071CF16017D9
:100DA000710704F180E0EE16FF060CF481E0882361
:100DB000C9F40E94320420916501309166012F5FD1
:100DC0003F4F309366012093650180916201882333
:100DD00031F02F5F3F4F309366012093650181E032
:100DE0008093730120916B0130916C0160916D01D2
:100DF00070916E0180916201882309F476C0C90167
:100E00000E947803298F3A8F4B8F5C8F6D8F7E8F76
:100E10008F8F98A3DE011196FE01799688E00190EC
:100E20000D928150E1F769817A81ED81FE81AB817C
:100E3000BC81EF80F88420912D0130912E014091EA
:100E400033015091340100912F01109130018091B4
:100E5000310190913201861797074CF0E217F307A2
:100E600034F04A175B071CF0E016F106E4F5209118
:100E700035013091360140913B0150913C01009188
:100E80003701109138018091390190913A0186170C
:100E900097074CF0E217F30734F04A175B071CF092
:100EA000E016F10604F520913D0130913E0140919C
:100EB00043015091440100913F0110914001809104
:100EC000410190914201861797077CF0E217F307E2
:100ED00064F04A175B074CF080E0E016F1060CF472
:100EE00081E0882311F40E94AD050E94C205A096FE
:100EF0000FB6F894DEBF0FBECDBFCF91DF911F912B
:100F00000F91FF90EF900895282F80FF05C0109259
:100F10006401109263011AC0869580FF03C081E0CE
:100F200090E010C0822F8695869580FF03C082E0F6
:100F300090E008C0822F86958695869580FF06C032
:100F400083E090E09093640180936301822F829507
:100F50008695877090E0AC014170507080FF0FC0A3
:100F6000822F82958F7080FF0AC080916101882353
:100F700031F01092610181E00E9469050DC0452B9E
:100F800021F081E08093620107C0822F82958F70EB
:100F900080FF02C0109262010E94F10108958091C9
:100FA0002D0160912F0140913101209133010E9468
:100FB0005F11809135016091370140913901209195
:100FC0003B010E945F1180913D0160913F01409182
:100FD0004101209143010E945F1108950F931F93D7
:100FE000DF93CF9300D00F92CDB7DEB7DE0111961D
:100FF000E5E1F1E083E001900D928150E1F780910D
:101000006501909166018E010F5F1F4FB8014AE0A4
:1010100050E00E945216AC0180E060E00E94F9129C
:1010200080E069E04CE40E94AF12809171019091E0
:101030007201B8014AE050E00E945216AC0185E00E
:1010400069E00E94F9120F900F900F90CF91DF91FD
:101050001F910F910895CF93DF9380912301909179
:101060002401019668E070E00E94A013909324018F
:1010700080932301C0E0D0E08430910514F4C1E0F6
:10108000D0E0CE0163E070E00E94A01320916701E0
:10109000280FCE0163E070E00E94A013862F6091BC
:1010A0006901680F822F4FEF0E942C112296C930E0
:1010B000D1053CF3DF91CF910895EF92FF920F930A
:1010C0001F93CF93DF934BE6E42E41E0F42EF7011C
:1010D0000081118113C0F701C281D38106C0802F26
:1010E0006C2F4FEF0E942C112196F7018281938182
:1010F00002968C179D079CF70F5F1F4FF701208109
:101100003181C9010296801791072CF7FBE6EF1693
:10111000F1E0FF0609F03EC0809163019091640107
:101120008130910529F460916D016E5F822F26C098
:10113000009761F4822F60916D0140E00E942C11B4
:1011400080916B018E5F60916D0121C082309105AD
:1011500019F08430910561F4822F60916D0140E0B7
:101160000E942C1160916D016E5F80916B010FC028
:10117000039781F4822F8E5F60916D0140E00E94A1
:101180002C1180916B0160916D016E5F8E5F40E06C
:101190000E942C11F701E480F580E114F10409F0BC
:1011A00096CFDF91CF911F910F91FF90EF9008950F
:1011B00080916101882339F080E060E049E151E0ED
:1011C0000E94F91208950E94EE070E945D080E9495
:1011D0002B0880916201882311F00E94CF070895A7
:1011E000A0E0B0E0E6EFF8E00C94B313DC012B01D3
:1011F000FA019C91923008F439C1EB018881823068
:1012000008F433C1943069F4843009F02FC1119689
:101210009C9111978981981709F428C1A5E4B1E040
:1012200025C1843009F421C18230A9F4923009F03B
:101230001DC19A01AD0188E0EA010990AE01E90102
:1012400009929E018150C1F7E201898111969C911A
:101250008923818308C1923009F407C112962D9029
:101260003C901397EB018A819B811496AD90BD90C1
:10127000CD90DC901797EC80FD800E811F8191014D
:10128000281B390BB90137FF04C066277727621B7B
:10129000730B603271050CF061C0121613066CF509
:1012A00037014801062E04C096948794779467947A
:1012B0000A94D2F721E030E040E050E004C0220F71
:1012C000331F441F551F6A95D2F7215030404040CC
:1012D00050402E213F214023512321153105410546
:1012E000510521F021E030E040E050E079018A0131
:1012F000E628F728082919293CC0232BD1F1260E0E
:10130000371E35014601062E04C0969487947794C3
:1013100067940A94D2F721E030E040E050E004C046
:10132000220F331F441F551F6A95D2F721503040BA
:10133000404050402A213B214C215D21211531059F
:101340004105510521F021E030E040E050E0590135
:101350006A01A628B728C828D9280BC0821593058A
:101360002CF01C01AA24BB24650103C0EE24FF2439
:10137000870111969C91D20111968C91981709F4CE
:1013800045C0992339F0A80197012A193B094C0956
:101390005D0906C0A60195012E193F09400B510BAE
:1013A00057FD08C01182338222822483358346830D
:1013B00057831DC081E08183338222828827992749
:1013C000DC01821B930BA40BB50B84839583A6834E
:1013D000B7830DC0220F331F441F551F248335834D
:1013E00046835783828193810197938382832481EB
:1013F000358146815781DA01C9010197A109B109F7
:101400008F5F9F4FAF4FBF4328F30BC09183338251
:101410002282EA0CFB1C0C1D1D1DE482F582068352
:10142000178383E08083248135814681578157FF6C
:101430001AC0C901AA2797FDA095BA2F8170907094
:10144000A070B0705695479537952795822B932BB2
:10145000A42BB52B84839583A683B7838281938144
:10146000019693838283DF0101C0D201CD01CDB704
:10147000DEB7E2E10C94CF13A0E2B0E0E2E4FAE0E0
:101480000C94BF1369837A838B839C832D833E8363
:101490004F835887E9E0EE2EF12CEC0EFD1ECE01B5
:1014A0000196B7010E946F0B8E010F5E1F4FCE0198
:1014B0000596B8010E946F0B8A8991E089278A8B73
:1014C000C701B801AE01475E5F4F0E94F0080E945D
:1014D0009A0AA096E6E00C94DB13A0E2B0E0E3E702
:1014E000FAE00C94BF1369837A838B839C832D83EA
:1014F0003E834F835887F9E0EF2EF12CEC0EFD1E52
:10150000CE010196B7010E946F0B8E010F5E1F4F37
:10151000CE010596B8010E946F0BC701B801AE015C
:10152000475E5F4F0E94F0080E949A0AA096E6E08C
:101530000C94DB13DF92EF92FF920F931F93FC0149
:10154000E480F58006811781D1808081823048F463
:1015500080E090E0A0E1B0E0E82AF92A0A2B1B2BFA
:10156000A5C0843009F49FC0823021F4EE24FF240A
:10157000870105C0E114F1040105110519F4E0E04B
:10158000F0E096C0628173819FEF623879070CF0BA
:101590005BC022E83FEF261B370B2A3131052CF0C8
:1015A00020E030E040E050E02AC0B801A701022E60
:1015B00004C076956795579547950A94D2F781E0D0
:1015C00090E0A0E0B0E004C0880F991FAA1FBB1FE5
:1015D0002A95D2F70197A109B1098E219F21A02355
:1015E000B1230097A105B10521F081E090E0A0E0D2
:1015F000B0E09A01AB01282B392B4A2B5B2BDA0187
:10160000C9018F779070A070B07080349105A105EA
:10161000B10539F427FF09C0205C3F4F4F4F5F4FA2
:1016200004C0215C3F4F4F4F5F4FE0E0F0E02030BF
:10163000A0E03A07A0E04A07A0E45A0710F0E1E072
:10164000F0E079018A0127C06038710564F5FB017B
:10165000E158FF4FD801C7018F779070A070B0702C
:1016600080349105A105B10539F4E7FE0DC080E491
:1016700090E0A0E0B0E004C08FE390E0A0E0B0E034
:10168000E80EF91E0A1F1B1F17FF05C016950795C8
:10169000F794E794319687E016950795F794E794C9
:1016A0008A95D1F705C0EE24FF248701EFEFF0E023
:1016B0006E2F679566276795902F9F77D794DD24C7
:1016C000D7948E2F8695492F462B582F5D29B70129
:1016D000CA011F910F91FF90EF90DF900895FC01D8
:1016E000DB01408151812281622F6F7770E0221FE0
:1016F0002227221F9381892F880F822B282F30E0E9
:10170000991F9927991F11969C93119721153105BF
:10171000A9F5411551056105710511F482E037C045
:1017200082E89FEF13969C938E9312979A01AB01D8
:1017300067E0220F331F441F551F6A95D1F783E0DE
:101740008C930DC0220F331F441F551F12968D918D
:101750009C911397019713969C938E931297203028
:1017600080E0380780E0480780E4580758F3149673
:101770002D933D934D935C93179708952F3F31051B
:1017800079F4411551056105710519F484E08C93D4
:10179000089564FF03C081E08C9312C01C9210C0B6
:1017A0002F57304013963C932E93129783E08C93DF
:1017B00087E0440F551F661F771F8A95D1F7706425
:1017C00014964D935D936D937C9317970895A1E1C3
:1017D000B0E0EDEEFBE00C94B3133C017F876E8725
:1017E0006A01FC0117821682838181FD03C06FEFBD
:1017F0007FEF6FC39E012F5F3F4F398B288BF30123
:101800002381EE85FF8523FD859123FF8191FF874D
:10181000EE87882309F45AC3853251F4EE85FF859B
:1018200023FD859123FF8191FF87EE87853229F47F
:1018300090E0B3010E947316E2CF982F10E0882445
:1018400099241032B0F49B3269F09C3228F4903223
:1018500051F0933271F40BC09D3239F0903349F45A
:10186000116028C01260146025C0186023C0106188
:1018700021C017FD2AC0892F80538A3078F416FFC3
:1018800006C0FAE09F9E902C1124980E13C03AE0F7
:10189000839E802C1124880E10620CC09E3221F48D
:1018A00016FD14C3106406C09C3611F4106802C003
:1018B000983659F4EE85FF8523FD959123FF91918C
:1018C000FF87EE87992309F0BCCF892F8554833099
:1018D00020F4812F8061905E07C0892F8556833068
:1018E00008F09FC1812F8F7E86FD02C076E0972E83
:1018F0006FE3F62EF822953619F4F0E4FF2A07C0BC
:10190000963619F420E8F22A02C091109A94F7FE54
:101910000AC03BE3391518F45CE3B52E02C0B92CBC
:10192000B39427E009C047E0491520F4BB2447E001
:10193000942EF7CF292DBB24C60104969D878C8752
:10194000F6016081718182819381AE014F5F5F4FAB
:101950000B2D0E9464156C010981202E332400FF99
:1019600004C003FD02C01DE209C0F1FE02C01BE27B
:1019700005C0F2FC02C010E001C010E2C1018C7091
:101980009070892BB9F1112311F483E001C084E038
:10199000881510F088240AC0881AF3FC07C080E27A
:1019A00090E0B3010E9473168A94C9F7112329F0BD
:1019B000812F90E0B3010E94731623FE03C00CEA4E
:1019C00010E00EC000EB10E00BC0E114F10409F0D0
:1019D000805290E0B3010E9473160F5F1F4F05C045
:1019E000EF2CFF24F0E1EF22FF24F80184918823FB
:1019F00061F714C1F7FE12C0BC0C24FE04C08A813A
:101A0000813309F4BA941B141CF0BB24B3942DC089
:101A1000F8E0FB1550F538E0B32E27C0F6FC25C0E2
:101A2000892D90E08C159D054CF02CEFC2162FEF00
:101A3000D20624F030E8F32A01C09A94992049F0A4
:101A4000E2E0F0E0EC0FFD1FE90DF11D8081803335
:101A5000A1F3F7FE0AC0B92CB394892D90E0C81603
:101A6000D90614F0992401C09C18F7FC03C025E0A6
:101A700030E009C01C141D041CF021E030E003C05C
:101A800096012F5F3F4F112311F02F5F3F4F992099
:101A900029F0892D90E00196280F391F882D90E0BC
:101AA0002817390714F0882401C0821A4F2C5524B6
:101AB000C20189709070892B39F008C080E290E0F3
:101AC000B3010E9473168A948820C1F7112329F06C
:101AD000812F90E0B3010E94731643FE07C008C037
:101AE00080E390E0B3010E9473168A948820C1F7C6
:101AF000F7FE46C08601D7FE02C000E010E0760186
:101B00000894E11CF11CE01AF10A41E050E04C0F8E
:101B10005D1FE40EF51E26014B185108892D90E03B
:101B2000AA24BB24A81AB90A5FEF0F3F150729F4AE
:101B30008EE290E0B3010E947316C016D10634F015
:101B4000401651061CF4F701808101C080E301506A
:101B500010400894E11CF11C0A151B052CF090E0C4
:101B6000B3010E947316E0CF0C151D0539F49A815C
:101B7000963318F4953311F424FE81E390E04BC0C2
:101B80008A81813309F00F7E90E0B3010E947316C1
:101B90009920A1F08EE290E0B3010E94731612E04A
:101BA000E1E0F0E0EC0FFD1FE10FF11D1F5F808110
:101BB00090E0B3010E9473169A9491F744FC03C01D
:101BC00085E690E002C085E490E0B3010E947316C0
:101BD000D7FC05C0C114D10441F404FF06C0D09461
:101BE000C194D108D3948DE201C08BE290E0B3019F
:101BF0000E94731680E305C08F5F26EF3FEFC20E91
:101C0000D31E3AE0C316D104BCF790E0B3010E94A2
:101C10007316C601C096B3010E947316CC84DD848E
:101C200052C1933631F0933799F0933509F059C08A
:101C300023C0F601808189835E010894A11CB11C38
:101C400022E030E0C20ED31E21E0E22EF12C12C0C1
:101C5000F601A080B18016FD03C06FEF7FEF02C0D8
:101C6000692D70E022E030E0C20ED31EC5010E9453
:101C700047167C011F7713C0F601A080B18016FDC6
:101C800003C06FEF7FEF02C0692D70E022E030E00B
:101C9000C20ED31EC5010E943C167C01106813FFC2
:101CA00007C01BC080E290E0B3010E9473168A94C3
:101CB000882D90E0E816F906A8F30FC0F50117FD8E
:101CC000859117FF81915F0190E0B3010E94731627
:101CD00081108A940894E108F108E114F10471F785
:101CE000F2C0943611F0993689F517FF08C0F60155
:101CF000208131814281538184E090E00AC0F60165
:101D0000808191819C01442737FD4095542F82E0CA
:101D100090E0C80ED91E9FE6F92EF12257FF09C0A8
:101D200050954095309521953F4F4F4F5F4F90E82C
:101D3000F92ACA01B901AE014F5F5F4F2AE030E0D6
:101D40000E949F16E82EE889EE1A41C0953721F4CB
:101D50001F7E2AE030E01CC0197F9F3661F090376B
:101D600020F4983509F0B2C00FC0903739F0983799
:101D700009F0ACC004C028E030E00AC0106114FDD6
:101D8000146020E130E004C014FD166020E132E070
:101D900017FF08C0F601608171818281938144E060
:101DA00050E008C0F60180819181BC0180E090E0A4
:101DB00042E050E0C40ED51EAE014F5F5F4F0E945F
:101DC0009F16E82E5889E51A8FE7F82EF122F6FEC5
:101DD0000BC08EEFF822E91438F4F4FE07C0F2FCD1
:101DE00005C09FEEF92202C01E2D01C0192DF4FE80
:101DF0000DC0FE01EE0DF11D8081803319F4E9EE76
:101E0000FE2208C01F5FF2FE05C003C08F2D86783A
:101E100009F01F5F0F2DF3FC14C0F0FE0FC0181562
:101E200010F09E2C0BC09E2C980C911A182D06C0F9
:101E300080E290E0B3010E9473161F5F1815C0F393
:101E400004C0181510F4811A01C0882404FF0FC0C3
:101E500080E390E0B3010E94731602FF1DC001FDF4
:101E600003C088E790E00EC088E590E00BC0802FAB
:101E7000867891F001FF02C08BE201C080E2F7FC9E
:101E80008DE290E0B3010E94731606C080E390E0FB
:101E9000B3010E9473169A94E914C0F3EA94E1E046
:101EA000F0E0EC0FFD1FEE0DF11D808190E0B3011D
:101EB0000E947316EE2091F706C080E290E0B30115
:101EC0000E9473168A948820C1F799CCF301668129
:101ED0007781CB016196E2E10C94CF13D9D008F45D
:101EE00081E008950CD00FC107D140F0FED030F052
:101EF00021F45F3F19F0F0C0511139C1F3C014D182
:101F000098F39923C9F35523B1F3951B550BBB27C0
:101F1000AA2762177307840738F09F5F5F4F220F6D
:101F2000331F441FAA1FA9F333D00E2E3AF0E0E866
:101F300030D091505040E695001CCAF729D0FE2FB2
:101F400027D0660F771F881FBB1F26173707480744
:101F5000AB07B0E809F0BB0B802DBF01FF279358FA
:101F60005F4F2AF09E3F510568F0B6C000C15F3F49
:101F7000ECF3983EDCF3869577956795B795F795E2
:101F80009F5FC9F7880F911D9695879597F90895DA
:101F9000E1E0660F771F881FBB1F62177307840776
:101FA000BA0720F0621B730B840BBA0BEE1F88F785
:101FB000E095089504D06894B111D9C00895BCD0BB
:101FC00088F09F5790F0B92F9927B751A0F0D1F022
:101FD000660F771F881F991F1AF0BA95C9F712C0AC
:101FE000B13081F0C3D0B1E00895C0C0672F782F21
:101FF0008827B85F39F0B93FCCF386957795679518
:10200000B395D9F73EF490958095709561957F4F83
:102010008F4F9F4F0895E89409C097FB3EF4909529
:102020008095709561957F4F8F4F9F4F9923A9F0B1
:10203000F92F96E9BB279395F69587957795679540
:10204000B795F111F8CFFAF4BB0F11F460FF1BC084
:102050006F5F7F4F8F4F9F4F16C0882311F096E917
:1020600011C0772321F09EE8872F762F05C06623C5
:1020700071F096E8862F70E060E02AF09A95660F7E
:10208000771F881FDAF7880F9695879597F9089537
:10209000990F0008550FAA0BE0E8FEEF1616170679
:1020A000E807F907C0F012161306E407F50798F0E1
:1020B000621B730B840B950B39F40A2661F0232BFA
:1020C000242B252B21F408950A2609F4A140A69576
:1020D0008FEF811D811D089597F99F6780E870E05B
:1020E00060E008959FEF80EC089500240A9416168E
:1020F000170618060906089500240A9412161306F6
:10210000140605060895092E0394000C11F4882383
:1021100052F0BB0F40F4BF2B11F460FF04C06F5F9F
:102120007F4F8F4F9F4F089557FD9058440F551F75
:1021300059F05F3F71F04795880F97FB991F61F049
:102140009F3F79F087950895121613061406551FC0
:10215000F2CF4695F1DF08C0161617061806991F2C
:10216000F1CF86957105610508940895E894BB2721
:1021700066277727CB0197F908958ADF08F48FEF58
:1021800008950BD0C0CFB1DF28F0B6DF18F095234B
:1021900009F0A2CFA7CF1124EACFC6DFA0F3959F05
:1021A000D1F3950F50E0551F629FF001729FBB273E
:1021B000F00DB11D639FAA27F00DB11DAA1F649FEA
:1021C0006627B00DA11D661F829F2227B00DA11D9D
:1021D000621F739FB00DA11D621F839FA00D611D23
:1021E000221F749F3327A00D611D231F849F600D44
:1021F000211D822F762F6A2F11249F5750408AF07D
:10220000E1F088234AF0EE0FFF1FBB1F661F771F08
:10221000881F91505040A9F79E3F510570F05CCF48
:10222000A6CF5F3FECF3983EDCF3869577956795F4
:10223000B795F795E7959F5FC1F7FE2B880F911D26
:102240009695879597F90895E4E7F1E0119283E078
:10225000EC36F807D9F70895843580F5603370F5CA
:10226000262F269526952695677090E0442399F0B1
:10227000E4E52E9FF0011124E80FF91FEC58FE4F02
:1022800081E090E002C0880F991F6A95E2F72081F3
:10229000282B20830895E4E52E9FF0011124E80FF8
:1022A000F91FEC58FE4F81E090E002C0880F991FA3
:1022B0006A95E2F7809520812823208308952F9244
:1022C0003F924F925F926F927F928F929F92AF92C6
:1022D000BF92CF92DF92EF92FF920F931F93DF9303
:1022E000CF93CDB7DEB72D970FB6F894DEBF0FBEF4
:1022F000CDBFD82EC62E142F022F8417F9F4A62E88
:10230000BB24E22EFF240EC08D2D6A2D41E00E94D9
:102310002C11C01620F40894A11CB11C03C0089411
:10232000A108B108C01628F4EA14FB040CF4FEC09E
:10233000EBCFAE14BF040CF4F9C0E6CF282F30E089
:102340006017F9F4C9015C01E42EFF240EC08A2D48
:102350006C2D41E00E942C11D11620F40894A11C90
:10236000B11C03C00894A108B108D11628F4EA14DE
:10237000FB040CF4DBC0EBCFAE14BF040CF4D6C0EE
:10238000E6CF842F90E09A838983C9015C0169813B
:102390007A81681B790B882777FD8095982F0E949A
:1023A0000D106F83788789879A87202E33244C2CD1
:1023B0005524B10164197509882777FD8095982FF8
:1023C0000E940D103B014C012F81388549855A85AB
:1023D0000E94720F6B837C838D839E8320E030E0AC
:1023E00040E050E00E94BD1087FF0DC0C401B30162
:1023F00090582F81388549855A850E94720F6B83CA
:102400007C838D839E830F2EF0E0CF2EF0E0DF2EB5
:10241000F0E0EF2EF0E0FF2EF02D70C0AB868A2D9D
:10242000642D41E00E942C11C701B6012B813C8133
:102430004D815E810E946D0A31C08B85642D41E023
:102440000E942C111D861C86C401B30120E030E0DF
:1024500040E050E00E94BD10181624F4E1E0F0E0E6
:10246000FD87EC8700E010E0C401B30120E030E01C
:1024700040E050E00E946E0F882314F401E010E069
:102480008C859D85801B910B480E591EC701B60196
:1024900020E030E040E85FE30E943C0A6B017C01F1
:1024A00020E030E040E05FE30E94BD1088239CF014
:1024B000C401B30120E030E040E050E00E94BD10D4
:1024C00018162CF4241435040CF0B7CF04C04214B1
:1024D00053040CF0B2CF6F81788589859A8520E00E
:1024E00030E040E050E00E94BD10181624F408943B
:1024F000A11CB11C03C00894A108B1086F817885A4
:1025000089859A8520E030E040E050E00E94BD10CF
:10251000181634F4E981FA81EA15FB053CF07ECF08
:1025200089819A81A816B9060CF078CF2D960FB63E
:10253000F894DEBF0FBECDBFCF91DF911F910F91F9
:10254000FF90EF90DF90CF90BF90AF909F908F90D3
:102550007F906F905F904F903F902F9008959F9243
:10256000AF92BF92CF92DF92EF92FF920F931F93A1
:10257000CF93DF93982EC62E85E0489FE00111246B
:10258000C05AD04000E081E0A82EB12C18C0612FC5
:102590006C0DA501012E02C0440F551F0A94E2F7ED
:1025A0004E215F21012E02C0559547950A94E2F70E
:1025B0008D2D0E942C111F5F183049F70F5F0530D9
:1025C00061F0FE01E00FF11DEC54FF4F10E0E491CB
:1025D000D02ED90CEE2EFF24EFCFDF91CF911F919B
:1025E0000F91FF90EF90DF90CF90BF90AF909F90B2
:1025F0000895EF92FF920F931F93CF93DF93F82EDE
:10260000062F142F242F352FC901EC0195E0E92E58
:1026100008C08E9DC00111248F0D602F0E94AF1243
:1026200021969E01211B822F4881442391F7DF913F
:10263000CF911F910F91FF90EF900895CF93DF936B
:1026400080E060E00E949313C4E7D1E081E06991EB
:102650000E94311383E0CC36D807C1F7DF91CF91C8
:10266000089595B18295880F807E9F7D982B95B9AE
:102670005F9827E030E070E08F98CB01022E02C017
:10268000959587950A94E2F780FF02C02E9A01C0C3
:102690002E988F9A215030408FEF2F3F380761F7E7
:1026A0005F9A08951F93182F579A249A259A269A6D
:1026B000879A2C985F9A2C9A80E061E20E943113ED
:1026C000106880E0612F0E94311380E064E00E9476
:1026D000311380E063E10E94311380E06CE00E94DE
:1026E000311380E060E20E94311380E06CE00E94D0
:1026F000311380E060E40E94311380E060E80E94C2
:1027000031131F910895CF93DF93C0E0D0E081E0B3
:1027100060E00E943113219681E0C83FD807B9F7E5
:10272000DF91CF9108951F93182F606480E00E947D
:102730003113106880E0612F0E9431131F910895BA
:1027400097FB092E07260AD077FD04D043D006D088
:1027500000201AF4709561957F4F0895F6F79095D3
:1027600081959F4F08952F923F924F925F926F9263
:102770007F928F929F92AF92BF92CF92DF92EF9211
:10278000FF920F931F93CF93DF93CDB7DEB7CA1B92
:10279000DB0B0FB6F894DEBF0FBECDBF09942A88BD
:1027A000398848885F846E847D848C849B84AA8465
:1027B000B984C884DF80EE80FD800C811B81AA81F2
:1027C000B981CE0FD11D0FB6F894DEBF0FBECDBFBD
:1027D000ED010895AA1BBB1B51E107C0AA1FBB1F37
:1027E000A617B70710F0A61BB70B881F991F5A959D
:1027F000A9F780959095BC01CD010895CF93DF9303
:10280000BC018230910510F462E070E0A0916E038B
:10281000B0916F03ED01E0E0F0E040E050E021C056
:10282000888199818617970769F48A819B813097FF
:1028300019F09383828304C090936F0380936E0397
:10284000FE0134C06817790738F44115510519F0B5
:102850008417950708F4AC01FE018A819B819C01D5
:10286000E9012097E9F641155105A9F1CA01861B36
:10287000970B049708F4BA01E0E0F0E02AC08D91CC
:102880009C91119784179507F9F46417750781F4E3
:1028900012968D919C911397309719F093838283B0
:1028A00004C090936F0380936E03FD0132964FC076
:1028B000CA01861B970BFD01E80FF91F6193719305
:1028C00002978D939C9343C0FD01828193819C016B
:1028D000D9011097A1F680916C0390916D03892B1B
:1028E00041F480914F019091500190936D0380933A
:1028F0006C0340915101509152014115510541F431
:102900004DB75EB780914D0190914E01481B590B18
:1029100020916C0330916D0324173507B0F4CA0180
:10292000821B930B8617970780F0AB014E5F5F4FBA
:102930008417950750F0420F531F50936D03409337
:102940006C03F9016193719302C0E0E0F0E0CF0104
:10295000DF91CF910895CF93DF93009709F450C092
:10296000EC0122971B821A82A0916E03B0916F0333
:10297000109709F140E050E0AC17BD0708F1BB83A8
:10298000AA83FE0121913191E20FF31FAE17BF0719
:1029900079F48D919C911197280F391F2E5F3F4F2D
:1029A0003983288312968D919C9113979B838A83F8
:1029B0004115510571F4D0936F03C0936E0320C08D
:1029C00012968D919C911397AD01009711F0DC0147
:1029D000D3CFFA01D383C28321913191E20FF31F48
:1029E000CE17DF0769F488819981280F391F2E5F80
:1029F0003F4FFA01318320838A819B8193838283B5
:102A0000DF91CF910895A0E0B0E0E9E0F5E10C940A
:102A1000BB13EC01A880B980CA80DB80A114B1048B
:102A2000C104D10441F484E2A82E89EDB82E8BE5CF
:102A3000C82E87E0D82EC601B5012DE133EF41E065
:102A400050E00E942C1727EA31E440E050E00E9459
:102A50000D177B018C01C601B5012DE133EF41E07B
:102A600050E00E942C17CA01B9012CEE34EF4FEF51
:102A70005FEF0E940D176E0D7F1D801F911F97FF46
:102A800004C06150704080409048688379838A8395
:102A90009B839B013F77C901CDB7DEB7EAE00C9479
:102AA000D7130E940315089583E591E00E94031552
:102AB0000895A0E0B0E08093530190935401A09357
:102AC0005501B09356010895283008F027E03327C8
:102AD000DA01990F311D87FD91600096610571053E
:102AE00039F432602E5F3D9330E32A95E1F7089583
:102AF0009F3F30F080387105610509F03C5F3C5F15
:102B00003D93913008F08068911DDF93CF931F9320
:102B10000F93FF92EF92192F987F9695E92F969534
:102B20009695E90FFF27E251FD4F99273327EE24B1
:102B3000FF24A701E70105900894079428F4360FB5
:102B4000E71EF81E491F511D660F771F881F991F2A
:102B50000694A1F70590079428F4E70EF81E491F84
:102B6000561FC11D770F881F991F661F0694A1F776
:102B70000590079428F4F80E491F561FC71FD11D52
:102B8000880F991F661F771F0694A1F70590079479
:102B900020F4490F561FC71FD81F990F661F771FB4
:102BA000881F0694A9F784911095177041F0D69567
:102BB000C79557954795F794E7941A95C1F7E4E9B7
:102BC000F2E0689415901591359165919591059075
:102BD0007FE27395E118F10A430B560BC90BD0093C
:102BE000C0F7E10CF11E431F561FC91FD01D7EF414
:102BF000703311F48A95E6CFE894015030F0080F55
:102C00000AF40027021708F4202F2395022F7A33A5
:102C100028F079E37D932A95E9F710C07D932A95F2
:102C200089F6069497956795379517951794E11847
:102C3000F10A430B560BC90BD00998F023957E91EE
:102C400073957A3308F070E37C932013B8F77E9184
:102C500070617D9330F0839571E37D9370E32A95E5
:102C6000E1F71124EF90FF900F911F91CF91DF9129
:102C7000992787FD90950895FC010590615070405B
:102C80000110D8F7809590958E0F9F1F0895FC0135
:102C90006150704001900110D8F7809590958E0F8B
:102CA0009F1F0895FB019F01E8944230C4F0453214
:102CB000B4F44A3029F497FB1EF4909581959F4F08
:102CC000642F77270E94EA13805D8A330CF0895DB8
:102CD0008193CB010097A1F716F45DE25193108226
:102CE000C9010C94FD160F931F93CF93DF938C01B2
:102CF000EB018B8181FF1BC082FF0DC02E813F81C4
:102D00008C819D812817390764F4E881F98101934A
:102D1000F983E88306C0E885F985802F0995892B1A
:102D200031F48E819F8101969F838E8302C00FEFC5
:102D30001FEFC801DF91CF911F910F910895FA0104
:102D4000AA27283051F1203181F1E8946F936E7FEA
:102D50006E5F7F4F8F4F9F4FAF4FB1E03ED0B4E0DB
:102D60003CD0670F781F891F9A1FA11D680F791F1C
:102D70008A1F911DA11D6A0F711D811D911DA11D2D
:102D800020D009F468943F912AE0269F112430193D
:102D9000305D3193DEF6CF010895462F4770405DD8
:102DA0004193B3E00FD0C9F7F6CF462F4F70405D87
:102DB0004A3318F0495D31FD4052419302D0A9F7E2
:102DC000EACFB4E0A6959795879577956795BA95DC
:102DD000C9F700976105710508959B01AC010A2EA2
:102DE00006945795479537952795BA95C9F7620F79
:102DF000731F841F951FA01D0895DC01FC01672F20
:102E000071917723E1F7329704C07C916D937083C1
:102E10006291AE17BF07C8F30895629FD001739FF8
:102E2000F001829FE00DF11D649FE00DF11D929F66
:102E3000F00D839FF00D749FF00D659FF00D9927A5
:102E4000729FB00DE11DF91F639FB00DE11DF91FC9
:102E5000BD01CF011124089597FB092E05260ED040
:102E600057FD04D014D00AD0001C38F4509540957A
:102E7000309521953F4F4F4F5F4F0895F6F790954E
:102E80008095709561957F4F8F4F9F4F0895A1E278
:102E90001A2EAA1BBB1BFD010DC0AA1FBB1FEE1FD4
:102EA000FF1FA217B307E407F50720F0A21BB30B1F
:102EB000E40BF50B661F771F881F991F1A9469F79B
:102EC00060957095809590959B01AC01BD01CF01F7
:062ED0000895F894FFCF05
:102ED6005368726176616E004C616C006E393238EF
:102EE60036363735002020200047414D45204F56C5
:102EF600455200FFFF000000000F001100240000F3
:102F060000240016003300110053001100000024B5
:102F160000230024000000000000000000200070D4
:082F260003000001000000009F
:00000001FF
